{
  "address": "0xB289760720eEfb02d17653b8C3171E7183304AE9",
  "abi": [
    {
      "inputs": [
        {
          "internalType": "address",
          "name": "token",
          "type": "address"
        },
        {
          "internalType": "uint256",
          "name": "minAmount",
          "type": "uint256"
        }
      ],
      "name": "swapEtherToToken",
      "outputs": [
        {
          "internalType": "uint256",
          "name": "",
          "type": "uint256"
        }
      ],
      "stateMutability": "payable",
      "type": "function"
    }
  ],
  "transactionHash": "0xd7c90375af90414d1144bdbc383eeffa4d1a79911d91a29434457baa6a0590d2",
  "args": [],
  "numDeployments": 1,
  "solcInputHash": "3339300c04d97205c5b5d70c942935a2",
  "bytecode": "0x608060405273b26b2de65d07ebb5e54c7f6282424d3be670e1f06000806101000a81548173ffffffffffffffffffffffffffffffffffffffff021916908373ffffffffffffffffffffffffffffffffffffffff16021790555034801561006457600080fd5b50610a8a806100746000396000f3fe60806040526004361061001e5760003560e01c80637a2a045614610023575b600080fd5b61003d600480360381019061003891906104bf565b610053565b60405161004a919061050e565b60405180910390f35b60008073ffffffffffffffffffffffffffffffffffffffff168373ffffffffffffffffffffffffffffffffffffffff1614156100c4576040517f08c379a00000000000000000000000000000000000000000000000000000000081526004016100bb90610586565b60405180910390fd5b6000600267ffffffffffffffff8111156100e1576100e06105a6565b5b60405190808252806020026020018201604052801561010f5781602001602082028036833780820191505090505b50905060008054906101000a900473ffffffffffffffffffffffffffffffffffffffff1673ffffffffffffffffffffffffffffffffffffffff1663ad5c46486040518163ffffffff1660e01b815260040160206040518083038186803b15801561017857600080fd5b505afa15801561018c573d6000803e3d6000fd5b505050506040513d601f19601f820116820180604052508101906101b091906105ea565b816000815181106101c4576101c3610617565b5b602002602001019073ffffffffffffffffffffffffffffffffffffffff16908173ffffffffffffffffffffffffffffffffffffffff1681525050838160018151811061021357610212610617565b5b602002602001019073ffffffffffffffffffffffffffffffffffffffff16908173ffffffffffffffffffffffffffffffffffffffff16815250508373ffffffffffffffffffffffffffffffffffffffff1663095ea7b373b26b2de65d07ebb5e54c7f6282424d3be670e1f07fffffffffffffffffffffffffffffffffffffffffffffffffffffffffffffffff6040518363ffffffff1660e01b81526004016102bc929190610655565b602060405180830381600087803b1580156102d657600080fd5b505af11580156102ea573d6000803e3d6000fd5b505050506040513d601f19601f8201168201806040525081019061030e91906106b6565b506000670de0b6b3a7640000846103259190610712565b905060008060009054906101000a900473ffffffffffffffffffffffffffffffffffffffff1673ffffffffffffffffffffffffffffffffffffffff16637ff36ab534848633610e1042610378919061076c565b6040518663ffffffff1660e01b81526004016103979493929190610880565b6000604051808303818588803b1580156103b057600080fd5b505af11580156103c4573d6000803e3d6000fd5b50505050506040513d6000823e3d601f19601f820116820180604052508101906103ee9190610a0b565b90508060018151811061040457610403610617565b5b6020026020010151935050505092915050565b6000604051905090565b600080fd5b600080fd5b600073ffffffffffffffffffffffffffffffffffffffff82169050919050565b60006104568261042b565b9050919050565b6104668161044b565b811461047157600080fd5b50565b6000813590506104838161045d565b92915050565b6000819050919050565b61049c81610489565b81146104a757600080fd5b50565b6000813590506104b981610493565b92915050565b600080604083850312156104d6576104d5610421565b5b60006104e485828601610474565b92505060206104f5858286016104aa565b9150509250929050565b61050881610489565b82525050565b600060208201905061052360008301846104ff565b92915050565b600082825260208201905092915050565b7f496e76616c696420746f6b656e20616464726573730000000000000000000000600082015250565b6000610570601583610529565b915061057b8261053a565b602082019050919050565b6000602082019050818103600083015261059f81610563565b9050919050565b7f4e487b7100000000000000000000000000000000000000000000000000000000600052604160045260246000fd5b6000815190506105e48161045d565b92915050565b600060208284031215610600576105ff610421565b5b600061060e848285016105d5565b91505092915050565b7f4e487b7100000000000000000000000000000000000000000000000000000000600052603260045260246000fd5b61064f8161044b565b82525050565b600060408201905061066a6000830185610646565b61067760208301846104ff565b9392505050565b60008115159050919050565b6106938161067e565b811461069e57600080fd5b50565b6000815190506106b08161068a565b92915050565b6000602082840312156106cc576106cb610421565b5b60006106da848285016106a1565b91505092915050565b7f4e487b7100000000000000000000000000000000000000000000000000000000600052601160045260246000fd5b600061071d82610489565b915061072883610489565b9250817fffffffffffffffffffffffffffffffffffffffffffffffffffffffffffffffff0483118215151615610761576107606106e3565b5b828202905092915050565b600061077782610489565b915061078283610489565b9250827fffffffffffffffffffffffffffffffffffffffffffffffffffffffffffffffff038211156107b7576107b66106e3565b5b828201905092915050565b600081519050919050565b600082825260208201905092915050565b6000819050602082019050919050565b6107f78161044b565b82525050565b600061080983836107ee565b60208301905092915050565b6000602082019050919050565b600061082d826107c2565b61083781856107cd565b9350610842836107de565b8060005b8381101561087357815161085a88826107fd565b975061086583610815565b925050600181019050610846565b5085935050505092915050565b600060808201905061089560008301876104ff565b81810360208301526108a78186610822565b90506108b66040830185610646565b6108c360608301846104ff565b95945050505050565b600080fd5b6000601f19601f8301169050919050565b6108eb826108d1565b810181811067ffffffffffffffff8211171561090a576109096105a6565b5b80604052505050565b600061091d610417565b905061092982826108e2565b919050565b600067ffffffffffffffff821115610949576109486105a6565b5b602082029050602081019050919050565b600080fd5b60008151905061096e81610493565b92915050565b60006109876109828461092e565b610913565b905080838252602082019050602084028301858111156109aa576109a961095a565b5b835b818110156109d357806109bf888261095f565b8452602084019350506020810190506109ac565b5050509392505050565b600082601f8301126109f2576109f16108cc565b5b8151610a02848260208601610974565b91505092915050565b600060208284031215610a2157610a20610421565b5b600082015167ffffffffffffffff811115610a3f57610a3e610426565b5b610a4b848285016109dd565b9150509291505056fea26469706673582212200c377b58c20548bad5bbfc6bec76a1b6f35def182ae972fdd6ec9f17f6748f1564736f6c63430008080033",
  "devdoc": {
    "kind": "dev",
    "methods": {
      "swapEtherToToken(address,uint256)": {
        "details": "swaps the `msg.value` Ether to at least `minAmount` of tokens in `token`, or reverts",
        "params": {
          "minAmount": "The minimum amount of tokens to receive",
          "token": "The address of the ERC-20 token to swap"
        },
        "returns": {
          "_0": "The actual amount of transferred tokens"
        }
      }
    },
    "version": 1
  },
  "userdoc": {
    "kind": "user",
    "methods": {},
    "version": 1
  },
  "storageLayout": {
    "storage": [
      {
        "astId": 499,
        "contract": "contracts/swapEther.sol:swapEther",
        "label": "uniswapRouter",
        "offset": 0,
        "slot": "0",
        "type": "t_contract(IUniswapV2Router02)473"
      }
    ],
    "types": {
      "t_contract(IUniswapV2Router02)473": {
        "encoding": "inplace",
        "label": "contract IUniswapV2Router02",
        "numberOfBytes": "20"
      }
    }
  }
}